:0300000002013BBF
:0C013B00787FE4F6D8FD75812002018277
:100457003F065B4F666D7D077F6FBF86DBCFE6ED9F
:04046700FD87FFEF1F
:10044300010817011038011137010F00C100C10164
:03045300010E0097
:1003C50012041012042AE50E14600C1460112402A4
:1003D50070F112025280EC1201C712039380E412ED
:0703E500001E12035580DC2D
:10035500E50E6402703720B3247F0A12040220B32D
:100365001C20010C0510E510B43C0FE4F510800AC3
:100375000508E508B41803E4F50830B3FD20B40D0D
:0E0385007F0A12040220B405B20130B4FD223A
:10039300E50E6401702B20B30D7F0A12040220B313
:1003A30005B28E30B3FD20B4187F0A12040220B4C4
:1003B30010C28EE4F509F50AF50BF50CF50D30B412
:0203C300FD2219
:10042A0020B2157F0A12040220B20D050EE50EB4A1
:09043A000303E4F50E30B2FD22CB
:03001B00020314C9
:10031400C0E0C0D0758D3C758BB00509E509640259
:10032400702AF509050AE50AB40A21750A00050BC5
:10033400E50BB43C17750B00050CE50CB43C0D75CE
:100344000C00050DE50DB40A03750D00D0D0D0E006
:010354003276
:03000B000202CD21
:1002CD00C0E0C0F0C0D0758C3C758AB0050FE50F4D
:1002DD0075F00A84E5F07002B200E50FB4142175D3
:1002ED000F000511E511B43C177511000510E5104F
:1002FD00B43C0D7510000508E508B4180375080029
:07030D00D0D0D0F0D0E032A7
:10041000D2AF758911758C3C758AB0D2A9D28C7512
:0A0420008D3C758BB0D2ABC28E226A
:10001E003001030200A8E51175F00A84E5F09004A2
:10002E005793F5807590DF7F0A120402E4F580E5A0
:10003E001175F00A8490045793F5807590EF7F0A3E
:10004E00120402E4F5803000121203EFE4F580E5AD
:10005E001075F00A84900457938007E41203FBE4B2
:10006E00F580F5807590FB7F0A120402E4F580E5B9
:10007E000875F00A84E5F090046193F5807590FDA3
:10008E007F0A120402E4F580E50875F00A849004F4
:10009E005793F5807590FE020132E51175F00A84D2
:1000AE00E5F090045793F5807590DF7F0A120402F5
:1000BE00E4F580E51175F00A8490045793F5807588
:1000CE0090EF7F0A1204021203ECE4F580E510753E
:1000DE00F00A8490045793F5807590FB7F0A120402
:1000EE0002E4F58030002AE50875F00A84E5F09008
:1000FE00046193F5807590FD7F0A120402E4F58089
:10010E00E50875F00A8490045793F5807590FE808B
:10011E0013E4F5807590FF7F0A120402E4F580F572
:0D012E00807590FF7F0A120402E4F5802224
:1001C700E50A75F00A84E5F090045793F580759079
:1001D700DF7F0A120402E4F580E50B75F00A84E577
:1001E700F090046193F5807590EF7F0A120402E4A2
:1001F700F580E50B75F00A849004571203FAE4F5CD
:1002070080E50C75F00A84E5F090046193F580753C
:1002170090FB7F0A120402E4F580E50C75F00A846E
:1002270090045793F5807590FD7F0A120402E4F558
:1002370080E50D75F00A84E5F090046193F580750B
:0B02470090FE7F0A120402E4F5802202
:10025200E51175F00A84E5F090045793F5807590E6
:10026200DF7F0A120402E4F580E51175F00A84903A
:10027200045793F5807590EF7F0A1204021203EC83
:10028200E4F580E51075F00A8490045793F58075C3
:1002920090FB7F0A120402E4F580E50875F00A84F7
:1002A200E5F090046193F5807590FD7F0A120402D7
:1002B200E4F580E50875F00A8490045793F580759B
:0B02C20090FE7F0A120402E4F5802287
:1003EC00E4F580E51075F00A84E5F090046193F56E
:0603FC00807590F77F0AF6
:0D040200EFD3940040077E6EDEFE1F80F3F6
:01040F0022CA
:100147000203C5E493A3F8E493A34003F68001F206
:1001570008DFF48029E493A3F85407240CC8C333B9
:10016700C4540F4420C8834004F456800146F6DF88
:10017700E4800B0102040810204080900443E47ED1
:10018700019360BCA3FF543F30E509541FFEE4937D
:10019700A360010ECF54C025E060A840B8E493A344
:1001A700FAE493A3F8E493A3C8C582C8CAC583CA6F
:1001B700F0A3C8C582C8CAC583CADFE9DEE780BE27
:0104560000A5
:00000001FF
